{
  "transactions": [
    {
      "hash": "0x05dd3eaf5e5e630b58a6d198b55e3161b7e37d52b5cda12f14c940c5b65ef9e0",
      "transactionType": "CALL",
      "contractName": "LinkToken",
      "contractAddress": "0x779877a7b0d9e8603169ddbd7836e478b4624789",
      "function": "transferAndCall(address,uint256,bytes)",
      "arguments": [
        "0x9DdfaCa8183c41ad55329BdeeD9F6A8d53168B1B",
        "3000000000000000000",
        "0x0935de16ca92272efdb796f0dd4d1526652b4c98bec7cecbb01b3eb4d1c93c5a"
      ],
      "transaction": {
        "from": "0x36eee8ee7b8f1e1fbd3e1a29479d992fd3da00d4",
        "to": "0x779877a7b0d9e8603169ddbd7836e478b4624789",
        "gas": "0x1c1ff",
        "value": "0x0",
        "input": "0x4000aea00000000000000000000000009ddfaca8183c41ad55329bdeed9f6a8d53168b1b00000000000000000000000000000000000000000000000029a2241af62c0000000000000000000000000000000000000000000000000000000000000000006000000000000000000000000000000000000000000000000000000000000000200935de16ca92272efdb796f0dd4d1526652b4c98bec7cecbb01b3eb4d1c93c5a",
        "nonce": "0x25",
        "chainId": "0xaa36a7"
      },
      "additionalContracts": [],
      "isFixedGasLimit": false
    }
  ],
  "receipts": [
    {
      "status": "0x1",
      "cumulativeGasUsed": "0xdfc067",
      "logs": [
        {
          "address": "0x779877a7b0d9e8603169ddbd7836e478b4624789",
          "topics": [
            "0xddf252ad1be2c89b69c2b068fc378daa952ba7f163c4a11628f55a4df523b3ef",
            "0x00000000000000000000000036eee8ee7b8f1e1fbd3e1a29479d992fd3da00d4",
            "0x0000000000000000000000009ddfaca8183c41ad55329bdeed9f6a8d53168b1b"
          ],
          "data": "0x00000000000000000000000000000000000000000000000029a2241af62c0000",
          "blockHash": "0x62662b88cb82b59e9fde81d582f389507b4be22e0ec6a109ea8db8c51581f64e",
          "blockNumber": "0x79e404",
          "transactionHash": "0x05dd3eaf5e5e630b58a6d198b55e3161b7e37d52b5cda12f14c940c5b65ef9e0",
          "transactionIndex": "0x7b",
          "logIndex": "0x121",
          "removed": false
        },
        {
          "address": "0x779877a7b0d9e8603169ddbd7836e478b4624789",
          "topics": [
            "0xe19260aff97b920c7df27010903aeb9c8d2be5d310a2c67824cf3f15396e4c16",
            "0x00000000000000000000000036eee8ee7b8f1e1fbd3e1a29479d992fd3da00d4",
            "0x0000000000000000000000009ddfaca8183c41ad55329bdeed9f6a8d53168b1b"
          ],
          "data": "0x00000000000000000000000000000000000000000000000029a2241af62c0000000000000000000000000000000000000000000000000000000000000000004000000000000000000000000000000000000000000000000000000000000000200935de16ca92272efdb796f0dd4d1526652b4c98bec7cecbb01b3eb4d1c93c5a",
          "blockHash": "0x62662b88cb82b59e9fde81d582f389507b4be22e0ec6a109ea8db8c51581f64e",
          "blockNumber": "0x79e404",
          "transactionHash": "0x05dd3eaf5e5e630b58a6d198b55e3161b7e37d52b5cda12f14c940c5b65ef9e0",
          "transactionIndex": "0x7b",
          "logIndex": "0x122",
          "removed": false
        },
        {
          "address": "0x9ddfaca8183c41ad55329bdeed9f6a8d53168b1b",
          "topics": [
            "0x1ced9348ff549fceab2ac57cd3a9de38edaaab274b725ee82c23e8fc8c4eec7a",
            "0x0935de16ca92272efdb796f0dd4d1526652b4c98bec7cecbb01b3eb4d1c93c5a"
          ],
          "data": "0x000000000000000000000000000000000000000000000000000000000000000000000000000000000000000000000000000000000000000029a2241af62c0000",
          "blockHash": "0x62662b88cb82b59e9fde81d582f389507b4be22e0ec6a109ea8db8c51581f64e",
          "blockNumber": "0x79e404",
          "transactionHash": "0x05dd3eaf5e5e630b58a6d198b55e3161b7e37d52b5cda12f14c940c5b65ef9e0",
          "transactionIndex": "0x7b",
          "logIndex": "0x123",
          "removed": false
        }
      ],
      "logsBloom": "0x00000004000000000000000000000000000000000020000000000000020000800000000000040000000000000000000000000000000000000000000000000000000000000000000000000008028000000000000000000000000020000020000008000000000000000000000000000000000000000000000000000010000040000000000000000000000000010000800000000020000000000000000000000000000000000000002000000000010000000000000000000000000004000000000000000002000000000000000000000000000000000000000100000000000000000010000000000000840000000000000000000000000000000000000000000000",
      "type": "0x2",
      "transactionHash": "0x05dd3eaf5e5e630b58a6d198b55e3161b7e37d52b5cda12f14c940c5b65ef9e0",
      "transactionIndex": "0x7b",
      "blockHash": "0x62662b88cb82b59e9fde81d582f389507b4be22e0ec6a109ea8db8c51581f64e",
      "blockNumber": "0x79e404",
      "gasUsed": "0x133b1",
      "effectiveGasPrice": "0x28c160d9f",
      "from": "0x36eee8ee7b8f1e1fbd3e1a29479d992fd3da00d4",
      "to": "0x779877a7b0d9e8603169ddbd7836e478b4624789",
      "contractAddress": null
    }
  ],
  "libraries": [],
  "pending": [],
  "returns": {},
  "timestamp": 1743026700,
  "chain": 11155111,
  "commit": "a870a2e"
}